S00C0000667265652E7372656376
S11300000C9434000C9451000C9451000C94510045
S11300100C9451000C9451000C946C020C945100FB
S11300200C9451000C9451000C9451000C94510008
S11300300C9451000C9451000C9451000C945100F8
S11300400C9451000C9451000C9451000C945100E8
S11300500C9451000C9451000C9451000C945100D8
S11300600C9451000C94510011241FBECFEFD8E022
S1130070DEBFCDBF11E0A0E0B1E0E6E4FDE002C0E8
S113008005900D92A431B107D9F721E0A4E1B1E0C4
S113009001C01D92AB37B207E1F70E9453000C94E4
S11300A0A1060C94000084B18FEF84B997B187B98D
S11300B0E12CF12C00E020E030E044E650E066E082
S11300C071E081E790E00E948E0201E020E030E0E0
S11300D044E650E06DE071E08DE890E00E948E020D
S11300E0E7CF80E090E041E050E068B19A01082E4B
S11300F002C0220F331F0A94E2F7262B28B92FE3FC
S11301003DE063E0215030406040E1F700C0000072
S113011001968138910549F7089580E090E041E027
S113012050E065B19A01082E02C0220F331F0A94D1
S1130130E2F7262B25B92FE33DE063E02150304060
S11301406040E1F700C0000001968830910549F74E
S11301500895CF93DF93EC010E94AE03CE010E9479
S11301604705D82FC92F0E9471048D2F9C2FDF9132
S1130170CF910895CF93DF93EC01009739F00E945B
S1130180AE03CE010E94E2050E947104DF91CF917B
S11301900895FC010396928381832FEF3FEF34830C
S11301A02383968385839087878310820895FC0137
S11301B0118610860895CF93DF939C01FB01DC0127
S11301C01196CD91DC911297D383C2838C819D814A
S11301D0958384838C819D81DC0113967C936E933B
S11301E012977D836C8331872087F90180818F5F2B
S11301F08083DF91CF910895CF93DF93FC01A08595
S1130200B185C281D381848195819D838C83C4818E
S1130210D581828193819B838A831196CD91DC91D0
S11302201297CE17DF0731F48C819D8112969C932F
S11302308E931197118610868C9181508C93DF9147
S1130240CF91089531E1FC013083319722E220837C
S1130250FC013297A3E3A083FC0133976083FC0184
S113026034977083FC0135971082FC01369760E85F
S11302706083FC0137971082FC01389762E0608349
S1130280FC01399763E06083FC013A9764E0608382
S1130290FC013B9765E06083FC013C9766E060836A
S11302A0FC013D9767E06083FC013E9768E0608352
S11302B0FC013F9769E06083FC01709760E1608313
S11302C0FC0171973083FC01729732E13083FC01A9
S11302D0739733E13083FC01749734E13083FC017C
S11302E0759735E13083FC01769736E13083FC0164
S11302F0779737E13083FC01789738E13083FC014C
S1130300799739E13083FC017A9730E23083FC013C
S11303107B9731E23083FC017C972083FC017D973D
S113032023E22083FC017E974083FC017F97508366
S1130330FC01B09726E22083FC01B19727E22083D9
S1130340FC01B29728E22083FC01B39729E22083C1
S1130350FC01B49720E32083FC01B59721E32083BB
S11303609C0126523109822F932F08950F920FB6C4
S1130370F8940F921F9211242F923F924F925F9202
S11303806F927F928F929F92AF92BF92CF92DF92A1
S1130390EF92FF920F931F932F933F934F935F938B
S11303A06F937F938F939F93AF93BF93CF93DF9379
S11303B0EF93FF93A0912301B09124010DB60D9208
S11303C00EB60D920E94EF04A0912301B091240176
S11303D0CD91CDBFDD91DEBFFF91EF91DF91CF9144
S11303E0BF91AF919F918F917F916F915F914F9149
S11303F03F912F911F910F91FF90EF90DF90CF903D
S1130400BF90AF909F908F907F906F905F904F9030
S11304103F902F901F900F900FBE0F9008950F9252
S11304200FB6F8940F921F9211242F923F924F927D
S11304305F926F927F928F929F92AF92BF92CF9270
S1130440DF92EF92FF920F931F932F933F934F935B
S11304505F936F937F938F939F93AF93BF93CF9348
S1130460DF93EF93FF93A0912301B09124010DB684
S11304700D920EB60D9213BE0E94B40381110E9418
S1130480EF04A0912301B0912401CD91CDBFDD9162
S1130490DEBFFF91EF91DF91CF91BF91AF919F911B
S11304A08F917F916F915F914F913F912F911F9108
S11304B00F91FF90EF90DF90CF90BF90AF909F90FF
S11304C08F907F906F905F904F903F902F901F90F0
S11304D00F900FBE0F9008950E940F021895E0919F
S11304E02101F09122018081811107C08FEF9FEFDC
S11304F090931601809315010895E0912101F091E4
S113050022010580F681E02D0680F781E02D8281AD
S11305109381909316018093150108955F926F92D1
S11305207F928F929F92AF92BF92CF92DF92EF927F
S1130530FF920F931F93CF93DF934C015B016A01EA
S11305403901502ECA010E94A9008C01009709F4B8
S1130550F4C088E290E00E94A900EC010097B1F099
S1130560188F0F8BA60165EA70E0C8010E947F0610
S113057081E0C81AD1088F89988DC80ED91ED5017B
S11305808C91898F8C91811105C016C0C8010E947D
S1130590BA00D3C0AE01465E5F4FF501319621E04B
S11305A0CF013191DA013D93AD01DC018C918823B7
S11305B019F02F5F2830A1F718A2B3E0B51520F485
S11305C00F2EF3E05F2EF02D5E8A59A21AA28E013F
S11305D00E5F1F4FC8010E94D700CE010C960E94E7
S11305E0D700D987C88784E090E0851991099D8751
S11305F08C87DB8BCA8B1BA21CA21DA21EA21FA26E
S1130600A301B401C6010E94220199838883E114E5
S1130610F10419F0F701D183C0830FB6F8940F9257
S113062080911E018F5F80931E0180912301909120
S11306302401892B09F040C0D0932401C0932301E5
S113064080911E01813009F047C0E12CF12CC701D3
S1130650880F991F880F991F880F991F8E0D9F1D52
S11306608A5D9E4F0E94C900FFEFEF1AFF0A84E0E3
S1130670E816F10461F78AE491E00E94C90083E579
S113068091E00E94C9008CE591E00E94C90085E6D2
S113069091E00E94C9008EE691E00E94C9008AE4BC
S11306A091E0909322018093210183E591E090935E
S11306B0200180931F0110C080911A0181110CC088
S11306C0E0912301F091240196898E89891720F005
S11306D0D0932401C0932301809125018F5F8093DF
S11306E025018E8990911B01981710F480931B01AA
S11306F090E09C01220F331F220F331F220F331F60
S1130700820F931FB8018A5D9E4F0E94DB000F90F9
S11307100FBE80911A01882361F0E0912301F091CA
S1130720240196898E89981730F40E94B60181E0DD
S113073005C081E003C081E001C08FEFDF91CF915C
S11307401F910F91FF90EF90DF90CF90BF90AF90EB
S11307509F908F907F906F905F9008958091140187
S11307608F5F809314010895CF92DF92EF92FF92EE
S11307700F931F93CF93DF9380911401811198C03D
S1130780E0901C01F0901D018FEFE81AF80AF09236
S11307901D01E0921C01E114F104B9F480912101DE
S11307A09091220120911F01309120013093220168
S11307B0209321019093200180931F0180911701C0
S11307C08F5F809317010E946F02809115019091B1
S11307D01601E816F90620F4D12C54C0DC2C03C011
S11307E0D12CCC24C394E0912101F0912201808189
S11307F0811107C08FEF9FEF90931601809315012D
S113080041C0E0912101F09122010580F681E02DA3
S1130810C681D7812A813B81E216F30628F43093FE
S11308201601209315012EC08E010E5F1F4FC801C3
S11308300E94FC008C899D89892B21F0CE010C96A5
S11308400E94FC002E8980911B01821710F42093D2
S11308501B0130E0C901880F991F880F991F880F69
S1130860991F820F931FB8018A5D9E4F0E94DB007F
S1130870E0912301F09124019E898689981708F05C
S1130880ADCFB1CFE0912301F0912401868990E0AE
S1130890FC01EE0FFF1FEE0FFF1FEE0FFF1F8E0F69
S11308A09F1FFC01EA5DFE4F8081823040F409C045
S11308B0809119018F5F80931901D12C02C0DD242E
S11308C0D39480911801882311F0DD24D3948D2DC5
S11308D0DF91CF911F910F91FF90EF90DF90CF9018
S11308E00895DF92EF92FF920F931F93CF93DF93BC
S11308F00FB6F8940F9280911401815080931401E3
S11309008091140181115EC080911E01811132C059
S11309105CC0E0916101F0916201C681D781CE0192
S11309200C960E94FC008E010E5F1F4FC8010E94AE
S1130930FC008E8990911B01981710F480931B0181
S113094090E09C01220F331F220F331F220F331F0D
S1130950820F931FB8018A5D9E4F0E94DB00E091D5
S11309602301F09124019E898689981768F0D0921A
S113097018010AC0C0E0D0E00F2EFCE5EF2EF1E034
S1130980FF2EF02DDD24D394F70180818111C1CF96
S1130990CD2B11F00E946F02C0911901CC2351F0AC
S11309A0D1E00E94B4038111D0931801C150C9F75A
S11309B01092190180911801882331F00E94B60128
S11309C081E003C080E001C080E00F900FBEDF91A2
S11309D0CF911F910F91FF90EF90DF900895809138
S11309E01401882321F081E0809318010895109266
S11309F0180120911B01822F90E0FC01EE0FFF1FD4
S1130A00EE0FFF1FEE0FFF1FE80FF91FEA5DFE4F09
S1130A103081311111C02150822F90E0FC01EE0F82
S1130A20FF1FEE0FFF1FEE0FFF1FE80FF91FEA5D18
S1130A30FE4F3081332379F3FC01EE0FFF1FEE0FDD
S1130A40FF1FEE0FFF1F8E0F9F1FFC01EA5DFE4F7D
S1130A50A181B28112960D90BC91A02DB283A18385
S1130A60CF010396A817B90731F412968D919C9182
S1130A701397928381830180F281E02D868197818F
S1130A80909324018093230120931B0108950F93D5
S1130A901F93CF93DF938230910510F482E090E0AE
S1130AA0E0917901F0917A0120E030E0C0E0D0E0FB
S1130AB023C04081518148175907A8F048175907A6
S1130AC061F482819381209719F09B838A832EC0DD
S1130AD090937A018093790129C02115310529F079
S1130AE04217530710F0A90102C0BE01DF010281C1
S1130AF01381EF019A01F8013097D9F621153105D8
S1130B0009F1281B390B2430310590F412968D918C
S1130B109C9113976115710521F0FB0193838283E6
S1130B2004C090937A0180937901FD01329644C008
S1130B30FD01E20FF31F81939193225031092D930C
S1130B403C933AC02091770130917801232B41F4F2
S1130B5020910201309103013093780120937701B1
S1130B6020910001309101012115310541F42DB787
S1130B703EB74091040150910501241B350BE091CF
S1130B807701F0917801E217F307A0F42E1B3F0BD5
S1130B902817390778F0AC014E5F5F4F24173507EB
S1130BA048F04E0F5F1F5093780140937701819373
S1130BB0919302C0E0E0F0E0CF01DF91CF911F916B
S1130BC00F910895EF92FF920F931F93CF93DF93AA
S1130BD0009709F48FC0DC01129713961C921E92A1
S1130BE01297E0907901F0907A01E114F10489F40C
S1130BF02D913C911197280F391F80917701909185
S1130C0078018217930789F5B0937801A09377014F
S1130C1071C0E70120E030E001C0EA01CA17DB0738
S1130C2038F44A815B819E0141155105B1F722C018
S1130C30BC0162507109FB01D383C283008111811D
S1130C40AC01400F511F4C175D0761F44881598175
S1130C50400F511F4E5F5F4F518340834A815B8138
S1130C60538342832115310529F4B0937A01A0936B
S1130C70790140C0F901B383A283E90169917991B3
S1130C80C60FD71FAC17BD0779F4DC015E914E91F6
S1130C90460F571F4E5F5F4F5183408312968D91CD
S1130CA09C91139793838283A0E0B0E002C0D701A4
S1130CB07C01F701828193810097C9F7C7010296ED
S1130CC020813181820F931F209177013091780127
S1130CD02817390779F4109729F410927A011092A1
S1130CE0790104C013961C921E921297F092780117
S1130CF0E0927701CDB7DEB7E6E00C949206DC0112
S1130D0001C06D9341505040E0F708952A88398816
S1130D1048885F846E847D848C849B84AA84B9848F
S1130D20C884DF80EE80FD800C811B81AA81B9819B
S1130D30CE0FD11D0FB6F894DEBF0FBECDBFED01AF
S1090D400895F894FFCFB2
S1130D4600007B0120005461736B5F3100546173B2
S1070D566B5F320099
S9030000FC
